{
    "contractName": "Test6",
    "abi": [
        {
            "inputs": [],
            "stateMutability": "nonpayable",
            "type": "constructor"
        },
        {
            "inputs": [],
            "name": "becomeRichest",
            "outputs": [
                {
                    "internalType": "bool",
                    "name": "",
                    "type": "bool"
                }
            ],
            "stateMutability": "payable",
            "type": "function"
        },
        {
            "inputs": [],
            "name": "mostSent",
            "outputs": [
                {
                    "internalType": "uint256",
                    "name": "",
                    "type": "uint256"
                }
            ],
            "stateMutability": "view",
            "type": "function"
        },
        {
            "inputs": [
                {
                    "internalType": "address",
                    "name": "",
                    "type": "address"
                }
            ],
            "name": "pendingWithdrawals",
            "outputs": [
                {
                    "internalType": "uint256",
                    "name": "",
                    "type": "uint256"
                }
            ],
            "stateMutability": "view",
            "type": "function"
        },
        {
            "inputs": [],
            "name": "richest",
            "outputs": [
                {
                    "internalType": "address payable",
                    "name": "",
                    "type": "address"
                }
            ],
            "stateMutability": "view",
            "type": "function"
        },
        {
            "inputs": [],
            "name": "withdraw",
            "outputs": [],
            "stateMutability": "nonpayable",
            "type": "function"
        }
    ],
    "bytecode": "608060405234801561001057600080fd5b50600080546001600160a01b03191633179055610238806100326000396000f3fe60806040526004361061004a5760003560e01c806302e26c381461004f5780633ccfd60b1461008c5780636886bf1c146100a357806369934ee7146100c7578063f3f43703146100df575b600080fd5b34801561005b57600080fd5b5060005461006f906001600160a01b031681565b6040516001600160a01b0390911681526020015b60405180910390f35b34801561009857600080fd5b506100a161010c565b005b3480156100af57600080fd5b506100b960015481565b604051908152602001610083565b6100cf610151565b6040519015158152602001610083565b3480156100eb57600080fd5b506100b96100fa3660046101ac565b60026020526000908152604090205481565b33600081815260026020526040808220805490839055905190929183156108fc02918491818181858888f1935050505015801561014d573d6000803e3d6000fd5b5050565b60006001543411156101a657600080546001600160a01b0316815260026020526040812080543492906101859084906101dc565b9091555050600080546001600160a01b031916331790555034600190815590565b50600090565b6000602082840312156101be57600080fd5b81356001600160a01b03811681146101d557600080fd5b9392505050565b600082198211156101fd57634e487b7160e01b600052601160045260246000fd5b50019056fea2646970667358221220ef79f8d0dcc0c94fa479d6c472123280ab37eb1bfaf267dbb13d2d9c6be01be364736f6c634300080c0033",
    "sourcePath": "f:/bootcamp2022/practice_second folder/contracts/Test6.sol",
    "compiler": {
        "name": "solc",
        "version": "0.8.12+commit.f00d7308"
    },
    "functionHashes": {
        "becomeRichest()": "69934ee7",
        "mostSent()": "6886bf1c",
        "pendingWithdrawals(address)": "f3f43703",
        "richest()": "02e26c38",
        "withdraw()": "3ccfd60b"
    },
    "gasEstimates": {
        "creation": {
            "codeDepositCost": "113600",
            "executionCost": "24394",
            "totalCost": "137994"
        },
        "external": {
            "becomeRichest()": "75186",
            "mostSent()": "2317",
            "pendingWithdrawals(address)": "2550",
            "richest()": "2304",
            "withdraw()": "infinite"
        }
    }
}